{
  "contractName": "Store",
  "abi": [
    {
      "constant": false,
      "inputs": [
        {
          "name": "name",
          "type": "bytes32"
        },
        {
          "name": "hashId1",
          "type": "bytes32"
        },
        {
          "name": "hashId2",
          "type": "bytes32"
        },
        {
          "name": "typeOfFile",
          "type": "bytes32"
        },
        {
          "name": "size",
          "type": "uint256"
        }
      ],
      "name": "addFile",
      "outputs": [],
      "payable": false,
      "stateMutability": "nonpayable",
      "type": "function",
      "signature": "0x0d5995e8"
    },
    {
      "constant": true,
      "inputs": [],
      "name": "numberOfFiles",
      "outputs": [
        {
          "name": "",
          "type": "uint256"
        }
      ],
      "payable": false,
      "stateMutability": "view",
      "type": "function",
      "signature": "0xa8cabcbc"
    },
    {
      "constant": true,
      "inputs": [
        {
          "name": "index",
          "type": "uint256"
        }
      ],
      "name": "getFile",
      "outputs": [
        {
          "name": "",
          "type": "bytes32"
        },
        {
          "name": "",
          "type": "bytes32"
        },
        {
          "name": "",
          "type": "bytes32"
        },
        {
          "name": "",
          "type": "bytes32"
        },
        {
          "name": "",
          "type": "uint256"
        }
      ],
      "payable": false,
      "stateMutability": "view",
      "type": "function",
      "signature": "0x2bfda313"
    }
  ],
  "bytecode": "0x608060405234801561001057600080fd5b5061057f806100206000396000f3fe608060405260043610610057576000357c0100000000000000000000000000000000000000000000000000000000900463ffffffff1680630d5995e81461005c5780632bfda313146100bf578063a8cabcbc1461012a575b600080fd5b34801561006857600080fd5b506100bd600480360360a081101561007f57600080fd5b810190808035906020019092919080359060200190929190803590602001909291908035906020019092919080359060200190929190505050610155565b005b3480156100cb57600080fd5b506100f8600480360360208110156100e257600080fd5b8101908080359060200190929190505050610222565b604051808681526020018581526020018481526020018381526020018281526020019550505050505060405180910390f35b34801561013657600080fd5b5061013f61050a565b6040518082815260200191505060405180910390f35b6000803373ffffffffffffffffffffffffffffffffffffffff1673ffffffffffffffffffffffffffffffffffffffff16815260200190815260200160002060a060405190810160405280878152602001868152602001858152602001848152602001838152509080600181540180825580915050906001820390600052602060002090600502016000909192909190915060008201518160000155602082015181600101556040820151816002015560608201518160030155608082015181600401555050505050505050565b6000806000806000806000803373ffffffffffffffffffffffffffffffffffffffff1673ffffffffffffffffffffffffffffffffffffffff16815260200190815260200160002080549050111515610308576040517f08c379a000000000000000000000000000000000000000000000000000000000815260040180806020018281038252602f8152602001807f746865726520617265206e6f2066696c6573206173736f63696174656420776981526020017f746820746869732061646472657373000000000000000000000000000000000081525060400191505060405180910390fd5b60008060003373ffffffffffffffffffffffffffffffffffffffff1673ffffffffffffffffffffffffffffffffffffffff1681526020019081526020016000208781548110151561035557fe5b906000526020600020906005020160000154905060008060003373ffffffffffffffffffffffffffffffffffffffff1673ffffffffffffffffffffffffffffffffffffffff168152602001908152602001600020888154811015156103b657fe5b906000526020600020906005020160010154905060008060003373ffffffffffffffffffffffffffffffffffffffff1673ffffffffffffffffffffffffffffffffffffffff1681526020019081526020016000208981548110151561041757fe5b906000526020600020906005020160020154905060008060003373ffffffffffffffffffffffffffffffffffffffff1673ffffffffffffffffffffffffffffffffffffffff1681526020019081526020016000208a81548110151561047857fe5b906000526020600020906005020160030154905060008060003373ffffffffffffffffffffffffffffffffffffffff1673ffffffffffffffffffffffffffffffffffffffff1681526020019081526020016000208b8154811015156104d957fe5b9060005260206000209060050201600401549050848484848499509950995099509950505050505091939590929450565b60008060003373ffffffffffffffffffffffffffffffffffffffff1673ffffffffffffffffffffffffffffffffffffffff1681526020019081526020016000208054905090509056fea165627a7a7230582058d559bd9772f182bd11df3a11f56c492c1ecb61c70f93b5318fc19e6643310d0029",
  "source": "pragma solidity ^0.5.00;\n\ncontract Store{\n    struct file{\n        bytes32 name;\n        bytes32 hashId1;\n        bytes32 hashId2;\n        bytes32 typeOfFile;\n        uint size;\n    }\n    mapping(address=>file[]) users;\n\n    function addFile(bytes32 name, bytes32 hashId1, bytes32 hashId2, bytes32 typeOfFile, uint size) public{\n        users[msg.sender].push(file(name,hashId1, hashId2, typeOfFile, size));\n    }\n    function numberOfFiles() public view returns(uint)  {\n        return users[msg.sender].length;\n    }\n    // function deleteFile(bytes32  hashId) public{\n\n    // }\n    // function editFile() public{\n\n    // }\n    // function shareFile(address to) public{\n        \n    // }\n    function getFile(uint index) public view returns(bytes32, bytes32, bytes32, bytes32, uint){\n        require(users[msg.sender].length>0,\"there are no files associated with this address\");\n        bytes32 name = users[msg.sender][index].name;\n        bytes32 hashId1 = users[msg.sender][index].hashId1;\n        bytes32 hashId2 = users[msg.sender][index].hashId2;\n        bytes32 typeOfFile = users[msg.sender][index].typeOfFile;\n        uint size = users[msg.sender][index].size;\n        return(name, hashId1, hashId2, typeOfFile, size);\n    }\n    \n}",
  "sourcePath": "/Users/burhan/work/college/storage_dapp/contracts/Store.sol",
  "compiler": {
    "name": "solc",
    "version": "0.5.0+commit.1d4f565a.Emscripten.clang"
  },
  "schemaVersion": "3.0.0",
  "updatedAt": "2019-03-24T14:05:47.633Z",
  "devdoc": {
    "methods": {}
  },
  "userdoc": {
    "methods": {}
  }
}