{
  "contractName": "Store",
  "abi": [
    {
      "constant": false,
      "inputs": [
        {
          "name": "name",
          "type": "bytes32"
        },
        {
          "name": "hashId1",
          "type": "bytes32"
        },
        {
          "name": "hashId2",
          "type": "bytes32"
        },
        {
          "name": "typeOfFile",
          "type": "bytes32"
        },
        {
          "name": "size",
          "type": "uint256"
        }
      ],
      "name": "addFile",
      "outputs": [],
      "payable": false,
      "stateMutability": "nonpayable",
      "type": "function",
      "signature": "0x0d5995e8"
    },
    {
      "constant": true,
      "inputs": [],
      "name": "numberOfFiles",
      "outputs": [
        {
          "name": "",
          "type": "uint256"
        }
      ],
      "payable": false,
      "stateMutability": "view",
      "type": "function",
      "signature": "0xa8cabcbc"
    },
    {
      "constant": false,
      "inputs": [
        {
          "name": "to",
          "type": "address"
        },
        {
          "name": "name",
          "type": "bytes32"
        },
        {
          "name": "hashId1",
          "type": "bytes32"
        },
        {
          "name": "hashId2",
          "type": "bytes32"
        },
        {
          "name": "typeOfFile",
          "type": "bytes32"
        },
        {
          "name": "size",
          "type": "uint256"
        }
      ],
      "name": "shareFile",
      "outputs": [],
      "payable": false,
      "stateMutability": "nonpayable",
      "type": "function",
      "signature": "0x2ee4e721"
    },
    {
      "constant": true,
      "inputs": [
        {
          "name": "index",
          "type": "uint256"
        }
      ],
      "name": "getFile",
      "outputs": [
        {
          "name": "",
          "type": "bytes32"
        },
        {
          "name": "",
          "type": "bytes32"
        },
        {
          "name": "",
          "type": "bytes32"
        },
        {
          "name": "",
          "type": "bytes32"
        },
        {
          "name": "",
          "type": "uint256"
        }
      ],
      "payable": false,
      "stateMutability": "view",
      "type": "function",
      "signature": "0x2bfda313"
    }
  ],
  "bytecode": "0x608060405234801561001057600080fd5b506106db806100206000396000f3fe608060405260043610610062576000357c0100000000000000000000000000000000000000000000000000000000900463ffffffff1680630d5995e8146100675780632bfda313146100ca5780632ee4e72114610135578063a8cabcbc146101b8575b600080fd5b34801561007357600080fd5b506100c8600480360360a081101561008a57600080fd5b8101908080359060200190929190803590602001909291908035906020019092919080359060200190929190803590602001909291905050506101e3565b005b3480156100d657600080fd5b50610103600480360360208110156100ed57600080fd5b81019080803590602001909291905050506102b0565b604051808681526020018581526020018481526020018381526020018281526020019550505050505060405180910390f35b34801561014157600080fd5b506101b6600480360360c081101561015857600080fd5b81019080803573ffffffffffffffffffffffffffffffffffffffff1690602001909291908035906020019092919080359060200190929190803590602001909291908035906020019092919080359060200190929190505050610598565b005b3480156101c457600080fd5b506101cd610666565b6040518082815260200191505060405180910390f35b6000803373ffffffffffffffffffffffffffffffffffffffff1673ffffffffffffffffffffffffffffffffffffffff16815260200190815260200160002060a060405190810160405280878152602001868152602001858152602001848152602001838152509080600181540180825580915050906001820390600052602060002090600502016000909192909190915060008201518160000155602082015181600101556040820151816002015560608201518160030155608082015181600401555050505050505050565b6000806000806000806000803373ffffffffffffffffffffffffffffffffffffffff1673ffffffffffffffffffffffffffffffffffffffff16815260200190815260200160002080549050111515610396576040517f08c379a000000000000000000000000000000000000000000000000000000000815260040180806020018281038252602f8152602001807f746865726520617265206e6f2066696c6573206173736f63696174656420776981526020017f746820746869732061646472657373000000000000000000000000000000000081525060400191505060405180910390fd5b60008060003373ffffffffffffffffffffffffffffffffffffffff1673ffffffffffffffffffffffffffffffffffffffff168152602001908152602001600020878154811015156103e357fe5b906000526020600020906005020160000154905060008060003373ffffffffffffffffffffffffffffffffffffffff1673ffffffffffffffffffffffffffffffffffffffff1681526020019081526020016000208881548110151561044457fe5b906000526020600020906005020160010154905060008060003373ffffffffffffffffffffffffffffffffffffffff1673ffffffffffffffffffffffffffffffffffffffff168152602001908152602001600020898154811015156104a557fe5b906000526020600020906005020160020154905060008060003373ffffffffffffffffffffffffffffffffffffffff1673ffffffffffffffffffffffffffffffffffffffff1681526020019081526020016000208a81548110151561050657fe5b906000526020600020906005020160030154905060008060003373ffffffffffffffffffffffffffffffffffffffff1673ffffffffffffffffffffffffffffffffffffffff1681526020019081526020016000208b81548110151561056757fe5b9060005260206000209060050201600401549050848484848499509950995099509950505050505091939590929450565b6000808773ffffffffffffffffffffffffffffffffffffffff1673ffffffffffffffffffffffffffffffffffffffff16815260200190815260200160002060a06040519081016040528087815260200186815260200185815260200184815260200183815250908060018154018082558091505090600182039060005260206000209060050201600090919290919091506000820151816000015560208201518160010155604082015181600201556060820151816003015560808201518160040155505050505050505050565b60008060003373ffffffffffffffffffffffffffffffffffffffff1673ffffffffffffffffffffffffffffffffffffffff1681526020019081526020016000208054905090509056fea165627a7a7230582067aa041fec9271181f4b20ee00b8e0b94d4f8d2e806498570d8b09817196255f0029",
  "source": "pragma solidity ^0.5.00;\n\ncontract Store{\n    struct file{\n        bytes32 name;\n        bytes32 hashId1;\n        bytes32 hashId2;\n        bytes32 typeOfFile;\n        uint size;\n    }\n    mapping(address=>file[]) users;\n\n    function addFile(bytes32 name, bytes32 hashId1, bytes32 hashId2, bytes32 typeOfFile, uint size) public{\n        users[msg.sender].push(file(name,hashId1, hashId2, typeOfFile, size));\n    }\n    function numberOfFiles() public view returns(uint)  {\n        return users[msg.sender].length;\n    }\n\n    function shareFile(address to, bytes32 name, bytes32 hashId1, bytes32 hashId2, bytes32 typeOfFile, uint size) public{\n        users[to].push(file(name,hashId1, hashId2, typeOfFile, size));\n    }\n\n    function getFile(uint index) public view returns(bytes32, bytes32, bytes32, bytes32, uint){\n        require(users[msg.sender].length>0,\"there are no files associated with this address\");\n        bytes32 name = users[msg.sender][index].name;\n        bytes32 hashId1 = users[msg.sender][index].hashId1;\n        bytes32 hashId2 = users[msg.sender][index].hashId2;\n        bytes32 typeOfFile = users[msg.sender][index].typeOfFile;\n        uint size = users[msg.sender][index].size;\n        return(name, hashId1, hashId2, typeOfFile, size);\n    }\n    \n}",
  "sourcePath": "/Users/burhan/work/college/storage_dapp/contracts/Store.sol",
  "compiler": {
    "name": "solc",
    "version": "0.5.0+commit.1d4f565a.Emscripten.clang"
  },
  "schemaVersion": "3.0.0",
  "updatedAt": "2019-04-12T07:23:22.348Z",
  "devdoc": {
    "methods": {}
  },
  "userdoc": {
    "methods": {}
  }
}