{
  "contractName": "Store",
  "abi": [
    {
      "constant": false,
      "inputs": [
        {
          "name": "createdAt",
          "type": "uint256"
        },
        {
          "name": "name",
          "type": "bytes32"
        },
        {
          "name": "hashId",
          "type": "bytes32"
        },
        {
          "name": "typeOfFile",
          "type": "bytes32"
        },
        {
          "name": "size",
          "type": "uint256"
        }
      ],
      "name": "addFile",
      "outputs": [],
      "payable": false,
      "stateMutability": "nonpayable",
      "type": "function",
      "signature": "0xe85f3411"
    },
    {
      "constant": true,
      "inputs": [],
      "name": "numberOfFiles",
      "outputs": [
        {
          "name": "",
          "type": "uint256"
        }
      ],
      "payable": false,
      "stateMutability": "view",
      "type": "function",
      "signature": "0xa8cabcbc"
    },
    {
      "constant": true,
      "inputs": [
        {
          "name": "index",
          "type": "uint256"
        }
      ],
      "name": "getFile",
      "outputs": [
        {
          "name": "",
          "type": "uint256"
        },
        {
          "name": "",
          "type": "uint256"
        },
        {
          "name": "",
          "type": "uint256"
        },
        {
          "name": "",
          "type": "bytes32"
        },
        {
          "name": "",
          "type": "bytes32"
        },
        {
          "name": "",
          "type": "bytes32"
        },
        {
          "name": "",
          "type": "uint256"
        }
      ],
      "payable": false,
      "stateMutability": "view",
      "type": "function",
      "signature": "0x2bfda313"
    }
  ],
  "bytecode": "0x608060405234801561001057600080fd5b5061067e806100206000396000f3fe608060405260043610610057576000357c0100000000000000000000000000000000000000000000000000000000900463ffffffff1680632bfda3131461005c578063a8cabcbc146100d5578063e85f341114610100575b600080fd5b34801561006857600080fd5b506100956004803603602081101561007f57600080fd5b8101908080359060200190929190505050610163565b6040518088815260200187815260200186815260200185815260200184815260200183815260200182815260200197505050505050505060405180910390f35b3480156100e157600080fd5b506100ea61051a565b6040518082815260200191505060405180910390f35b34801561010c57600080fd5b50610161600480360360a081101561012357600080fd5b810190808035906020019092919080359060200190929190803590602001909291908035906020019092919080359060200190929190505050610563565b005b6000806000806000806000806000803373ffffffffffffffffffffffffffffffffffffffff1673ffffffffffffffffffffffffffffffffffffffff1681526020019081526020016000208054905011151561024c576040517f08c379a000000000000000000000000000000000000000000000000000000000815260040180806020018281038252602f8152602001807f746865726520617265206e6f2066696c6573206173736f63696174656420776981526020017f746820746869732061646472657373000000000000000000000000000000000081525060400191505060405180910390fd5b60008060003373ffffffffffffffffffffffffffffffffffffffff1673ffffffffffffffffffffffffffffffffffffffff1681526020019081526020016000208981548110151561029957fe5b906000526020600020906007020160000154905060008060003373ffffffffffffffffffffffffffffffffffffffff1673ffffffffffffffffffffffffffffffffffffffff1681526020019081526020016000208a8154811015156102fa57fe5b906000526020600020906007020160010154905060008060003373ffffffffffffffffffffffffffffffffffffffff1673ffffffffffffffffffffffffffffffffffffffff1681526020019081526020016000208b81548110151561035b57fe5b906000526020600020906007020160020154905060008060003373ffffffffffffffffffffffffffffffffffffffff1673ffffffffffffffffffffffffffffffffffffffff1681526020019081526020016000208c8154811015156103bc57fe5b906000526020600020906007020160030154905060008060003373ffffffffffffffffffffffffffffffffffffffff1673ffffffffffffffffffffffffffffffffffffffff1681526020019081526020016000208d81548110151561041d57fe5b906000526020600020906007020160040154905060008060003373ffffffffffffffffffffffffffffffffffffffff1673ffffffffffffffffffffffffffffffffffffffff1681526020019081526020016000208e81548110151561047e57fe5b906000526020600020906007020160050154905060008060003373ffffffffffffffffffffffffffffffffffffffff1673ffffffffffffffffffffffffffffffffffffffff1681526020019081526020016000208f8154811015156104df57fe5b9060005260206000209060070201600601549050868686868686869d509d509d509d509d509d509d5050505050505050919395979092949650565b60008060003373ffffffffffffffffffffffffffffffffffffffff1673ffffffffffffffffffffffffffffffffffffffff16815260200190815260200160002080549050905090565b6000803373ffffffffffffffffffffffffffffffffffffffff1673ffffffffffffffffffffffffffffffffffffffff16815260200190815260200160002060e06040519081016040528060008152602001600081526020018781526020018681526020018581526020018481526020018381525090806001815401808255809150509060018203906000526020600020906007020160009091929091909150600082015181600001556020820151816001015560408201518160020155606082015181600301556080820151816004015560a0820151816005015560c08201518160060155505050505050505056fea165627a7a72305820ddf3a0fade49d02b34505a7ed12f88990e9b68e00f18d82c96e7d8f3ad4d7f2e0029",
  "source": "pragma solidity ^0.5.00;\n\ncontract Store{\n    struct file{\n        uint createdAt;\n        uint updatedAt;\n        uint deletedAt;\n        bytes32 name;\n        bytes32 hashId;\n        bytes32 typeOfFile;\n        uint size;\n    }\n    mapping(address=>file[]) users;\n\n    function addFile(uint createdAt, bytes32 name, bytes32 hashId, bytes32 typeOfFile, uint size) public{\n        users[msg.sender].push(file(0, 0, createdAt, name,hashId, typeOfFile, size));\n    }\n    function numberOfFiles() public view returns(uint)  {\n        return users[msg.sender].length;\n    }\n    // function deleteFile(bytes32  hashId) public{\n\n    // }\n    // function editFile() public{\n\n    // }\n    // function shareFile(address to) public{\n        \n    // }\n    function getFile(uint index) public view returns(uint, uint, uint, bytes32, bytes32, bytes32, uint){\n        require(users[msg.sender].length>0,\"there are no files associated with this address\");\n        uint createdAt = users[msg.sender][index].createdAt;\n        uint updatedAt = users[msg.sender][index].updatedAt;\n        uint deletedAt = users[msg.sender][index].deletedAt;\n        bytes32 name = users[msg.sender][index].name;\n        bytes32 hashId = users[msg.sender][index].hashId;\n        bytes32 typeOfFile = users[msg.sender][index].typeOfFile;\n        uint size = users[msg.sender][index].size;\n        return(createdAt, updatedAt, deletedAt, name, hashId, typeOfFile, size);\n    }\n    \n}",
  "sourcePath": "/Users/burhan/work/college/storage_dapp/contracts/Store.sol",
  "compiler": {
    "name": "solc",
    "version": "0.5.0+commit.1d4f565a.Emscripten.clang"
  },
  "schemaVersion": "3.0.0",
  "updatedAt": "2018-12-27T11:42:52.346Z",
  "devdoc": {
    "methods": {}
  },
  "userdoc": {
    "methods": {}
  }
}