{
  "contractName": "Store",
  "abi": [
    {
      "constant": false,
      "inputs": [
        {
          "name": "name",
          "type": "bytes32"
        },
        {
          "name": "hashId",
          "type": "bytes32"
        },
        {
          "name": "typeOfFile",
          "type": "bytes32"
        },
        {
          "name": "size",
          "type": "uint256"
        }
      ],
      "name": "addFile",
      "outputs": [],
      "payable": false,
      "stateMutability": "nonpayable",
      "type": "function",
      "signature": "0xb5c68405"
    },
    {
      "constant": true,
      "inputs": [],
      "name": "numberOfFiles",
      "outputs": [
        {
          "name": "",
          "type": "uint256"
        }
      ],
      "payable": false,
      "stateMutability": "view",
      "type": "function",
      "signature": "0xa8cabcbc"
    },
    {
      "constant": true,
      "inputs": [
        {
          "name": "index",
          "type": "uint256"
        }
      ],
      "name": "getFile",
      "outputs": [
        {
          "name": "",
          "type": "bytes32"
        },
        {
          "name": "",
          "type": "bytes32"
        },
        {
          "name": "",
          "type": "bytes32"
        },
        {
          "name": "",
          "type": "uint256"
        }
      ],
      "payable": false,
      "stateMutability": "view",
      "type": "function",
      "signature": "0x2bfda313"
    }
  ],
  "bytecode": "0x608060405234801561001057600080fd5b506104f5806100206000396000f3fe608060405260043610610057576000357c0100000000000000000000000000000000000000000000000000000000900463ffffffff1680632bfda3131461005c578063a8cabcbc146100c0578063b5c68405146100eb575b600080fd5b34801561006857600080fd5b506100956004803603602081101561007f57600080fd5b8101908080359060200190929190505050610144565b6040518085815260200184815260200183815260200182815260200194505050505060405180910390f35b3480156100cc57600080fd5b506100d56103c4565b6040518082815260200191505060405180910390f35b3480156100f757600080fd5b506101426004803603608081101561010e57600080fd5b810190808035906020019092919080359060200190929190803590602001909291908035906020019092919050505061040d565b005b60008060008060008060003373ffffffffffffffffffffffffffffffffffffffff1673ffffffffffffffffffffffffffffffffffffffff16815260200190815260200160002080549050111515610229576040517f08c379a000000000000000000000000000000000000000000000000000000000815260040180806020018281038252602f8152602001807f746865726520617265206e6f2066696c6573206173736f63696174656420776981526020017f746820746869732061646472657373000000000000000000000000000000000081525060400191505060405180910390fd5b60008060003373ffffffffffffffffffffffffffffffffffffffff1673ffffffffffffffffffffffffffffffffffffffff1681526020019081526020016000208681548110151561027657fe5b906000526020600020906004020160000154905060008060003373ffffffffffffffffffffffffffffffffffffffff1673ffffffffffffffffffffffffffffffffffffffff168152602001908152602001600020878154811015156102d757fe5b906000526020600020906004020160010154905060008060003373ffffffffffffffffffffffffffffffffffffffff1673ffffffffffffffffffffffffffffffffffffffff1681526020019081526020016000208881548110151561033857fe5b906000526020600020906004020160020154905060008060003373ffffffffffffffffffffffffffffffffffffffff1673ffffffffffffffffffffffffffffffffffffffff1681526020019081526020016000208981548110151561039957fe5b9060005260206000209060040201600301549050838383839750975097509750505050509193509193565b60008060003373ffffffffffffffffffffffffffffffffffffffff1673ffffffffffffffffffffffffffffffffffffffff16815260200190815260200160002080549050905090565b6000803373ffffffffffffffffffffffffffffffffffffffff1673ffffffffffffffffffffffffffffffffffffffff1681526020019081526020016000206080604051908101604052808681526020018581526020018481526020018381525090806001815401808255809150509060018203906000526020600020906004020160009091929091909150600082015181600001556020820151816001015560408201518160020155606082015181600301555050505050505056fea165627a7a72305820ec1ffc792456add52ea9df12cde2fdc5bda092b50156500fc7b02dd79c2c65480029",
  "source": "pragma solidity ^0.5.00;\n\ncontract Store{\n    struct file{\n        bytes32 name;\n        bytes32 hashId;\n        bytes32 typeOfFile;\n        uint size;\n    }\n    mapping(address=>file[]) users;\n\n    function addFile(bytes32 name, bytes32 hashId, bytes32 typeOfFile, uint size) public{\n        users[msg.sender].push(file(name,hashId, typeOfFile, size));\n    }\n    function numberOfFiles() public view returns(uint)  {\n        return users[msg.sender].length;\n    }\n    // function deleteFile(bytes32  hashId) public{\n\n    // }\n    // function editFile() public{\n\n    // }\n    // function shareFile(address to) public{\n        \n    // }\n    function getFile(uint index) public view returns(bytes32, bytes32, bytes32, uint){\n        require(users[msg.sender].length>0,\"there are no files associated with this address\");\n        bytes32 name = users[msg.sender][index].name;\n        bytes32 hashId = users[msg.sender][index].hashId;\n        bytes32 typeOfFile = users[msg.sender][index].typeOfFile;\n        uint size = users[msg.sender][index].size;\n        return(name, hashId, typeOfFile, size);\n    }\n    \n}",
  "sourcePath": "/Users/burhan/work/college/storage_dapp/contracts/Store.sol",
  "compiler": {
    "name": "solc",
    "version": "0.5.0+commit.1d4f565a.Emscripten.clang"
  },
  "schemaVersion": "3.0.0",
  "updatedAt": "2019-03-17T13:54:57.656Z",
  "devdoc": {
    "methods": {}
  },
  "userdoc": {
    "methods": {}
  }
}